:100000000C945C000C946E000C946E000C946E00CA
:100010000C946E000C946E000C946E000C946E00A8
:100020000C946E000C946E000C946E000C946E0098
:100030000C946E000C946E000C946E000C946E0088
:100040000C94D3010C946E000C946E000C946E0012
:100050000C946E000C946E000C946E000C946E0068
:100060000C946E000C946E00000000080002010069
:100070000003040700000000000000000000000072
:10008000250028002B0000000000240027002A0083
:10009000040404040404040402020202020203032E
:1000A0000303030301020408102040800102040836
:1000B000102001020408102011241FBECFEFD8E049
:1000C000DEBFCDBF21E0A0E0B1E001C01D92AB30AA
:1000D000B207E1F70E941D020C9460030C9400002B
:1000E00090E0FC01EC55FF4F249180579F4FFC019D
:1000F0008491882399F090E0880F991FFC01EA57BA
:10010000FF4FA591B491FC01E458FF4F8591949164
:100110008FB7F894EC91E22BEC938FBF089590E0A9
:10012000FC01E859FF4F2491FC01EC55FF4F34913D
:10013000FC01E057FF4FE491EE23C9F0222339F090
:10014000233001F1A8F4213019F1223029F1F0E037
:10015000EE0FFF1FE458FF4FA591B4918FB7F894AD
:10016000EC91611126C030953E233C938FBF0895DA
:100170002730A9F02830C9F0243049F78091800059
:100180008F7D03C0809180008F7780938000DFCFC8
:1001900084B58F7784BDDBCF84B58F7DFBCF809115
:1001A000B0008F778093B000D2CF8091B0008F7D68
:1001B000F9CF3E2BDACF1F93CF93DF93182FEB01AC
:1001C0000E947000209739F460E0812FDF91CF9179
:1001D0001F910C948F00CF3FD10511F461E0F5CF52
:1001E000E12FF0E0E859FF4FE491E33031F140F4C2
:1001F000E130B1F0E230E1F0C038D1057CF7E4CF76
:10020000E73029F1E83059F1E430B1F7809180000E
:10021000806280938000D0938B00C0938A0004C0DA
:1002200084B5806884BDC7BDDF91CF911F910895CB
:1002300084B5806284BDC8BDF7CF8091800080689E
:1002400080938000D0938900C0938800EDCF809187
:10025000B00080688093B000C093B300E5CF809178
:10026000B00080628093B000C093B400DDCF3FB790
:10027000F8948091070190910801A0910901B09133
:100280000A0126B5A89B05C02F3F19F00196A11DB4
:10029000B11D3FBFBA2FA92F982F8827BC01CD01D0
:1002A000620F711D811D911D42E0660F771F881F2F
:1002B000991F4A95D1F708958F929F92AF92BF925E
:1002C000CF92DF92EF92FF924B015C010E943701C7
:1002D0006B017C010E9437016C197D098E099F0911
:1002E000683E734081059105A8F321E0821A9108C8
:1002F000A108B10888EEC80E83E0D81EE11CF11CED
:1003000081149104A104B10429F7FF90EF90DF90CC
:10031000CF90BF90AF909F908F9008950F931F93B1
:10032000CF93DF938B01EA01BC0189E00E94DB00DF
:10033000B8018AE00E94DB00BE018BE0DF91CF9123
:100340001F910F910C94DB001F93CF93DF93182F15
:10035000CFEFD0E0BE01812F0E94DB006AE070E0A9
:1003600080E090E00E945C012197A0F7DF91CF919F
:100370001F9108951F93CF93DF93182FD0E0C0E013
:10038000BE01812F0E94DB006AE070E080E090E017
:100390000E945C012196C11581E0D80789F7DF91A1
:1003A000CF911F9108951F920F920FB60F921124B3
:1003B0002F933F938F939F93AF93BF9380910301AC
:1003C00090910401A0910501B091060130910201C4
:1003D00023E0230F2D3758F50196A11DB11D209361
:1003E00002018093030190930401A0930501B0934F
:1003F00006018091070190910801A0910901B09137
:100400000A010196A11DB11D809307019093080177
:10041000A0930901B0930A01BF91AF919F918F9171
:100420003F912F910F900FBE0F901F90189526E8C7
:10043000230F0296A11DB11DD2CF789484B582609E
:1004400084BD84B5816084BD85B5826085BD85B578
:10045000816085BD80916E00816080936E001092F6
:100460008100809181008260809381008091810071
:100470008160809381008091800081608093800002
:100480008091B10084608093B1008091B000816060
:100490008093B00080917A00846080937A0080918C
:1004A0007A00826080937A0080917A0081608093E4
:1004B0007A0080917A00806880937A001092C1005F
:1004C00089E00E9470008AE00E9470008BE00E9428
:1004D00070008DE00E94700070E060E089E00E9492
:1004E000DB0070E060E08AE00E94DB0070E060E02A
:1004F0008BE00E94DB0060E08DE00E948F00C3E093
:10050000D0E061E08DE00E948F0064EF71E080E058
:1005100090E00E945C0160E08DE00E948F0064EF3B
:1005200071E080E090E00E945C01219751F70FEFAD
:1005300010E080E0E82E80E0F82E89E090E00E9454
:10054000BA0189E090E00E94A4018AE090E00E9454
:10055000BA018AE090E00E94A4018BE090E00E9442
:10056000BA018BE090E00E94A40189E090E00E9433
:10057000BA0164EF71E080E090E00E945C018AE0E3
:1005800090E00E94BA0164EF71E080E090E00E9488
:100590005C018BE090E00E94BA0164EF71E080E0C2
:1005A00090E00E945C018AE090E00E94A40164EF68
:1005B00071E080E090E00E945C0189E090E00E94A0
:1005C000A40164EF71E080E090E00E945C018BE0A8
:1005D00090E00E94A40164EF71E080E090E00E944E
:1005E0005C011092010110920001C0910001D091B4
:1005F0000101CF3FD10509F0C4F4BE0189E00E949A
:10060000DB00BE018AE00E94DB00BE018BE00E949D
:10061000DB006AE070E080E090E00E945C012196DF
:10062000D0930101C0930001E0CF1093010100932A
:100630000001C0910001D0910101D7FD18C0BE0199
:1006400089E00E94DB00BE018AE00E94DB00BE015F
:100650008BE00E94DB006AE070E080E090E00E94A6
:100660005C012197D0930101C0930001E2CF60EDBE
:1006700077E080E090E00E945C0142E650E06DE1AE
:1006800070E088E390E00E948E0160ED77E080E00A
:1006900090E00E945C0143EE50E065E070E080EE87
:1006A00090E00E948E0160ED77E080E090E00E9493
:1006B0005C01E114F10409F440CF0E9400003DCF39
:0406C000F894FFCFDC
:00000001FF
