:100000000C9462000C948A000C948A000C948A0070
:100010000C948A000C948A000C948A000C948A0038
:100020000C948A000C948A000C948A000C948A0028
:100030000C948A000C948A000C948A000C948A0018
:100040000C94BE020C948A000C942E030C940803AA
:100050000C948A000C948A000C948A000C948A00F8
:100060000C948A000C948A000000000023002600F3
:10007000290000000000240027002A0000000000E2
:10008000250028002B0004040404040404040202D4
:100090000202020203030303030301020408102007
:1000A0004080010204081020010204081020000012
:1000B0000008000201000003040700000000000027
:1000C00000007F0511241FBECFEFD8E0DEBFCDBFFB
:1000D00011E0A0E0B1E0E0E4FFE002C005900D9285
:1000E000A433B107D9F721E0A4E3B1E001C01D9228
:1000F000A23EB207E1F710E0C2E6D0E004C02197CB
:10010000FE010E949807C136D107C9F70E94A503D6
:100110000C949E070C94000090E0FC01E255FF4F08
:100120002491FC01E656FF4F3491FC01EA57FF4F42
:10013000E491EE23C9F0222339F0233001F1A8F431
:10014000213019F1223029F1F0E0EE0FFF1FE458C1
:10015000FF4FA591B4918FB7F894EC91611126C02F
:1001600030953E233C938FBF08952730A9F0283067
:10017000C9F0243049F7809180008F7D03C08091C1
:1001800080008F7780938000DFCF84B58F7784BD28
:10019000DBCF84B58F7DFBCF8091B0008F778093CC
:1001A000B000D2CF8091B0008F7DF9CF3E2BDACF57
:1001B000CF93DF9390E0FC01E656FF4F24918A57DE
:1001C0009F4FFC0184918823D1F090E0880F991F04
:1001D000FC01EE58FF4FA591B491FC01E458FF4F8C
:1001E000C591D49161110EC09FB7F8948C91E22F04
:1001F000E0958E238C932881E223E8839FBFDF91D3
:10020000CF9108958FB7F894EC91E22BEC938FBFC8
:10021000F6CF3FB7F8948091410190914201A091AF
:100220004301B091440126B5A89B05C02F3F19F0AA
:100230000196A11DB11D3FBFBA2FA92F982F882766
:10024000BC01CD01620F711D811D911D42E0660F41
:10025000771F881F991F4A95D1F708958F929F9213
:10026000AF92BF92CF92DF92EF92FF924B015C016F
:100270000E9409016B017C010E9409016C197D0932
:100280008E099F09683E734081059105A8F321E01E
:10029000821A9108A108B10888EEC80E83E0D81E22
:1002A000E11CF11C81149104A104B10429F7FF9011
:1002B000EF90DF90CF90BF90AF909F908F90089578
:1002C000AF92BF92CF92DF92EF92FF920F931F9364
:1002D000CF93DF936C017B018B01040F151FEB01A2
:1002E0005E01AE18BF08C017D10759F06991D60159
:1002F000ED91FC910190F081E02DC6010995892BCB
:1003000079F7C501DF91CF911F910F91FF90EF9089
:10031000DF90CF90BF90AF900895FC01538D448D36
:10032000252F30E0842F90E0821B930B541710F0A0
:10033000CF96089501970895FC01918D828D9817AD
:1003400061F0A28DAE0FBF2FB11D5D968C91928D85
:100350009F5F9F73928F90E008958FEF9FEF0895B6
:10036000FC01918D828D981731F0828DE80FF11D7F
:10037000858D90E008958FEF9FEF0895FC01918D9A
:10038000228D892F90E0805C9F4F821B91098F7393
:100390009927089585E491E00E94BE0121E0892B10
:1003A00009F420E0822F089580E090E0892B29F065
:1003B0000E94CA0181110C9400000895FC01A48DD3
:1003C000A80FB92FB11DA35ABF4F2C91848D90E077
:1003D00001968F739927848FA689B7892C93A0895A
:1003E000B1898C91837080648C93938D848D9813E4
:1003F00006C00288F389E02D80818F7D8083089577
:10040000EF92FF920F931F93CF93DF93EC0181E064
:10041000888F9B8D8C8D98131AC0E889F98980810B
:1004200085FF15C09FB7F894EE89FF896083E8893E
:10043000F98980818370806480839FBF81E090E030
:10044000DF91CF911F910F91FF90EF900895F62EBD
:100450000B8D10E00F5F1F4F0F731127E02E8C8D57
:100460008E110CC00FB607FCFACFE889F98980819C
:1004700085FFF5CFCE010E94DE01F1CFEB8DEC0FB1
:10048000FD2FF11DE35AFF4FF0829FB7F8940B8FB9
:10049000EA89FB8980818062CFCFCF93DF93EC0123
:1004A000888D8823B9F0AA89BB89E889F9898C915C
:1004B00085FD03C0808186FD0DC00FB607FCF7CF18
:1004C0008C9185FFF2CF808185FFEDCFCE010E9418
:1004D000DE01E9CFDF91CF910895FC01019000206A
:1004E000E9F73197AF01481B590BBC0185E491E056
:1004F0000C9460018F929F92AF92BF920F931F93C3
:10050000CF93DF93CDB7DEB7A1970FB6F894DEBFD8
:100510000FBECDBF19A2423008F44AE08E010F5D34
:100520001F4F842E912CB12CA12CA50194010E9467
:100530007607E62FB901CA01EA30F4F4E05DD8018C
:10054000EE938D01232B242B252B79F790E080E06F
:10055000109719F0CD010E946D02A1960FB6F89484
:10056000DEBF0FBECDBFDF91CF911F910F91BF9026
:10057000AF909F908F900895E95CE1CF1F920F920A
:100580000FB60F9211242F933F938F939F93AF93A6
:10059000BF9380913D0190913E01A0913F01B091A8
:1005A000400130913C0123E0230F2D3758F501968F
:1005B000A11DB11D20933C0180933D0190933E010C
:1005C000A0933F01B093400180914101909142017D
:1005D000A0914301B09144010196A11DB11D8093EA
:1005E000410190934201A0934301B0934401BF9114
:1005F000AF919F918F913F912F910F900FBE0F90D0
:100600001F90189526E8230F0296A11DB11DD2CF89
:100610001F920F920FB60F9211242F933F934F9377
:100620005F936F937F938F939F93AF93BF93EF935A
:10063000FF9385E491E00E94DE01FF91EF91BF916D
:10064000AF919F918F917F916F915F914F913F916A
:100650002F910F900FBE0F901F9018951F920F9221
:100660000FB60F9211242F938F939F93EF93FF93C5
:10067000E0915501F09156018081E0915B01F0918C
:100680005C0182FD1BC0908180915E018F5F8F7342
:1006900020915F01821741F0E0915E01F0E0EB5B99
:1006A000FE4F958F80935E01FF91EF919F918F9107
:1006B0002F910F900FBE0F901F9018958081F4CF4F
:1006C000CF92DF92EF92FF920F931F93E82FF92FB3
:1006D00005C0015011092109310961F1908196236A
:1006E0009417B9F305C0015011092109310911F11D
:1006F000908196239413F7CFC12CD12CE12CF12CAF
:100700000AC08FEFC81AD80AE80AF80A0C151D05A6
:100710002E053F0579F080818623841791F36C2D97
:100720007D2D8E2D9F2D1F910F91FF90EF90DF90CB
:10073000CF90089560E070E080E090E01F910F910D
:10074000FF90EF90DF90CF900895789484B5826009
:1007500084BD84B5816084BD85B5826085BD85B565
:10076000816085BD80916E00816080936E001092E3
:10077000810080918100826080938100809181005E
:1007800081608093810080918000816080938000EF
:100790008091B10084608093B1008091B00081604D
:1007A0008093B00080917A00846080937A00809179
:1007B0007A00826080937A0080917A0081608093D1
:1007C0007A0080917A00806880937A001092C1004C
:1007D000E0915501F091560182E08083E091510152
:1007E000F09152011082E0915301F09154018FEC8D
:1007F000808310925D01E0915901F0915A0186E0E9
:100800008083E0915701F09158018081806180835D
:10081000E0915701F0915801808188608083E091D8
:100820005701F0915801808180688083E0915701E1
:10083000F091580180818F7D808361E08DE00E947E
:10084000D80061E082E00E94D80060E084E00E946D
:10085000D80060E082E00E948C0060E08DE00E94A1
:100860008C00C3E0D0E061E08DE00E948C0064EF7A
:1008700071E080E090E00E942E0160E08DE00E9437
:100880008C0064EF71E080E090E00E942E012197DF
:1008900051F7C3E2D0E09EE9292E90E0392E2AE8F4
:1008A000A22E20E0B22E30E0832E30E0932E61E0C5
:1008B00082E00E948C00CE010197F1F760E082E0B7
:1008C0000E948C00F1016491F5018491E82FF0E021
:1008D000EE0FFF1FE859FF4F8591949100E412E459
:1008E0002FE030E0462F0E946003611571058105FD
:1008F000910529F06F5F7F4F8F4F9F4F9F706093DF
:1009000038017093390180933A0190933B010E9422
:100910004F0626E933E44BE85CE30E94040760934A
:10092000340170933501809336019093370182E151
:1009300091E00E946D0283E291E00E946D02C090FE
:100940003801D0903901E0903A01F0903B014AE043
:10095000C701B601F7FE0DC06DE285E491E00E948B
:10096000000266277727CB016C197D098E099F0944
:100970004AE00E947A0286E291E00E946D02C090F5
:100980003401D0903501E0903601F0903701A70195
:100990009601C701B6010E9471078823F1F088E231
:1009A00091E00E946D0285E291E00E946D0283E277
:1009B00091E00E946D0268EE73E080E090E00E949A
:1009C0002E018114910409F472CF0E94CA01882378
:1009D00009F46DCF0E9400006ACF26013701E89428
:1009E00077F82FEF3FEF4FE75FE7C301B2010E94B7
:1009F000710781110DC02FEF3FEF4FE75FE7C30194
:100A0000B2010E94190618161CF48CE291E0C9CFBD
:100A10002FEF3FEF4FE75FE4C701B6010E94FF06EB
:100A200018161CF480E391E0BCCF2FEF3FEF4FE7A7
:100A30005FECC701B6010E94190687FDF3CF20E0E5
:100A400030E0A901C701B6010E94190687FF09C05D
:100A50006DE285E491E00E940002F7FAF094F7F865
:100A6000F0942AE037ED43EA5BE3C701B6010E9448
:100A7000AD052B013C010E941E066B017C010E940A
:100A80004D069B01AC01C301B2010E94AC052B01D4
:100A90003C014AE0C701B6010E947A026EE285E499
:100AA00091E00E94000220E030E040E251E4C30106
:100AB000B2010E9404072B013C010E941E066B013B
:100AC000F12CE12C4AE0C701B6010E947A02C7016D
:100AD000B6010E944D069B01AC01C301B2010E9408
:100AE000AC0520E030E040E251E40E9404070E949F
:100AF0001E0690E080E04AE00E947A0254CFE5E4CE
:100B0000F1E01382128288EE93E0A0E0B0E08483EB
:100B10009583A683B78384E091E09183808385ECFD
:100B200090E09587848784EC90E09787868780ECB7
:100B300090E0918B808B81EC90E0938B828B82ECA8
:100B400090E0958B848B86EC90E0978B868B118E52
:100B5000128E138E148E08955058BB27AA270E9418
:100B6000C4050C94C5060E94B70638F00E94BE0664
:100B700020F039F49F3F19F426F40C94B4060EF4D7
:100B8000E095E7FB0C94AE06E92F0E94D60658F3D9
:100B9000BA17620773078407950720F079F4A6F562
:100BA0000C94F8060EF4E0950B2EBA2FA02D0B0135
:100BB000B90190010C01CA01A0011124FF27591BA2
:100BC00099F0593F50F4503E68F11A16F040A22FA8
:100BD000232F342F4427585FF3CF46953795279519
:100BE000A795F0405395C9F77EF41F16BA0B620B18
:100BF000730B840BBAF09150A1F0FF0FBB1F661F5F
:100C0000771F881FC2F70EC0BA0F621F731F841FA1
:100C100048F4879577956795B795F7959E3F08F0C7
:100C2000B0CF9395880F08F09927EE0F9795879589
:100C300008950E948A0608F481E008950E94DE0665
:100C400088F09F5798F0B92F9927B751B0F0E1F08D
:100C5000660F771F881F991F1AF0BA95C9F714C03D
:100C6000B13091F00E94F806B1E008950C94F806B6
:100C7000672F782F8827B85F39F0B93FCCF3869576
:100C800077956795B395D9F73EF4909580957095D3
:100C900061957F4F8F4F9F4F0895E89409C097FB50
:100CA0003EF490958095709561957F4F8F4F9F4F43
:100CB0009923A9F0F92F96E9BB279395F695879587
:100CC00077956795B795F111F8CFFAF4BB0F11F44A
:100CD00060FF1BC06F5F7F4F8F4F9F4F16C08823F1
:100CE00011F096E911C0772321F09EE8872F762F27
:100CF00005C0662371F096E8862F70E060E02AF068
:100D00009A95660F771F881FDAF7880F9695879553
:100D100097F90895990F0008550FAA0BE0E8FEEF28
:100D200016161706E807F907C0F012161306E407AF
:100D3000F50798F0621B730B840B950B39F40A26A8
:100D400061F0232B242B252B21F408950A2609F486
:100D5000A140A6958FEF811D811D089597F99F678A
:100D600080E870E060E008959FEF80EC0895002433
:100D70000A941616170618060906089500240A9400
:100D800012161306140605060895092E0394000C86
:100D900011F4882352F0BB0F40F4BF2B11F460FF15
:100DA00004C06F5F7F4F8F4F9F4F089557FD90583E
:100DB000440F551F59F05F3F71F04795880F97FB1F
:100DC000991F61F09F3F79F08795089512161306D9
:100DD0001406551FF2CF4695F1DF08C01616170608
:100DE0001806991FF1CF869571056105089408953D
:100DF000E894BB2766277727CB0197F908950E94CF
:100E00008A0608F48FEF08950E9417070C94C50610
:100E10000E94B70638F00E94BE0620F0952311F01C
:100E20000C94AE060C94B40611240C94F9060E949E
:100E3000D60670F3959FC1F3950F50E0551F629F42
:100E4000F001729FBB27F00DB11D639FAA27F00D23
:100E5000B11DAA1F649F6627B00DA11D661F829F4A
:100E60002227B00DA11D621F739FB00DA11D621F2F
:100E7000839FA00D611D221F749F3327A00D611D4C
:100E8000231F849F600D211D822F762F6A2F11242E
:100E90009F5750409AF0F1F088234AF0EE0FFF1F61
:100EA000BB1F661F771F881F91505040A9F79E3FB8
:100EB000510580F00C94AE060C94F9065F3FE4F304
:100EC000983ED4F3869577956795B795F795E7950E
:100ED0009F5FC1F7FE2B880F911D9695879597F917
:100EE00008950E948A06880B990B0895A1E21A2E94
:100EF000AA1BBB1BFD010DC0AA1FBB1FEE1FFF1FBE
:100F0000A217B307E407F50720F0A21BB30BE40B0D
:100F1000F50B661F771F881F991F1A9469F7609554
:100F20007095809590959B01AC01BD01CF0108950E
:100F3000EE0FFF1F0590F491E02D0994F894FFCF78
:100F400000000000000260018D014D02BE019C0105
:100F5000B0015469656D706F2F44697374616E637D
:100F60006961000D0A002F006E616E00696E6600F7
:040F70006F76660032
:00000001FF
