:100000000C9461000C947E000C947E000C947E0095
:100010000C947E000C947E000C947E000C947E0068
:100020000C947E000C947E000C947E000C947E0058
:100030000C947E000C947E000C947E000C947E0048
:100040000C94B5010C947E000C947E000C947E0000
:100050000C947E000C947E000C947E000C947E0028
:100060000C947E000C947E0000000000230026000B
:10007000290000000000240027002A0000000000E2
:10008000250028002B0004040404040404040202D4
:100090000202020203030303030301020408102007
:1000A0004080010204081020010204081020000012
:1000B0000008000201000003040700000000000027
:1000C000000011241FBECFEFD8E0DEBFCDBF11E08E
:1000D000A0E0B1E0E0E8F7E002C005900D92A030AA
:1000E000B107D9F721E0A0E0B1E001C01D92AB302B
:1000F000B207E1F70E9444020C94BE030C94000086
:1001000090E0FC01E255FF4F2491FC01E656FF4FC1
:100110003491FC01EA57FF4FE491EE23C9F022230A
:1001200039F0233001F1A8F4213019F1223029F1FE
:10013000F0E0EE0FFF1FE458FF4FA591B4918FB789
:10014000F894EC91611126C030953E233C938FBF0B
:1001500008952730A9F02830C9F0243049F780915C
:1001600080008F7D03C0809180008F778093800016
:10017000DFCF84B58F7784BDDBCF84B58F7DFBCF98
:100180008091B0008F778093B000D2CF8091B00083
:100190008F7DF9CF3E2BDACFCF93DF9390E0FC0138
:1001A000E656FF4F24918A579F4FFC018491882384
:1001B000D1F090E0880F991FFC01EE58FF4FA591F8
:1001C000B491FC01E458FF4FC591D49161110EC068
:1001D0009FB7F8948C91E22FE0958E238C93288121
:1001E000E223E8839FBFDF91CF9108958FB7F89402
:1001F000EC91E22BEC938FBFF6CF1F93CF93DF935D
:10020000182FEB0161E00E94CC00209739F460E0E8
:10021000812FDF91CF911F910C948000CF3FD105AA
:1002200011F461E0F5CFE12FF0E0E255FF4FE491EA
:10023000E33031F140F4E130B1F0E230E1F0C038C8
:10024000D1057CF7E4CFE73029F1E83059F1E4300B
:10025000B1F780918000806280938000D0938B0002
:10026000C0938A0004C084B5806884BDC7BDDF9197
:10027000CF911F91089584B5806284BDC8BDF7CF2A
:1002800080918000806880938000D0938900C09323
:100290008800EDCF8091B00080688093B000C0935B
:1002A000B300E5CF8091B00080628093B000C0932E
:1002B000B400DDCF3FB7F894809107019091080119
:1002C000A0910901B0910A0126B5A89B05C02F3F56
:1002D00019F00196A11DB11D3FBFBA2FA92F982F6C
:1002E0008827BC01CD01620F711D811D911D42E067
:1002F000660F771F881F991F4A95D1F708958F922F
:100300009F92AF92BF92CF92DF92EF92FF920E94A4
:100310005A014B015C0184EFC82EDD24D394E12CFB
:10032000F12C0E945A01681979098A099B09683ED3
:10033000734081059105A8F321E0C21AD108E108B4
:10034000F10888EE880E83E0981EA11CB11CC11430
:10035000D104E104F10429F7FF90EF90DF90CF90F2
:10036000BF90AF909F908F9008951F920F920FB6FD
:100370000F9211242F933F938F939F93AF93BF932B
:100380008091030190910401A0910501B0910601B3
:100390003091020123E0230F2D3758F50196A11D5E
:1003A000B11D209302018093030190930401A09357
:1003B0000501B09306018091070190910801A09179
:1003C0000901B0910A010196A11DB11D8093070199
:1003D00090930801A0930901B0930A01BF91AF91D6
:1003E0009F918F913F912F910F900FBE0F901F9073
:1003F000189526E8230F0296A11DB11DD2CFCF92EA
:10040000DF92EF92FF920F931F93E82FF92F05C011
:10041000015011092109310961F190819623941746
:10042000B9F305C0015011092109310911F1908179
:1004300096239413F7CFC12CD12CE12CF12C0AC0B8
:100440008FEFC81AD80AE80AF80A0C151D052E0500
:100450003F0579F080818623841791F36C2D7D2DE3
:100460008E2D9F2D1F910F91FF90EF90DF90CF90D9
:10047000089560E070E080E090E01F910F91FF90A0
:10048000EF90DF90CF900895789484B5826084BD1A
:1004900084B5816084BD85B5826085BD85B5816088
:1004A00085BD80916E00816080936E001092810006
:1004B00080918100826080938100809181008160C1
:1004C0008093810080918000816080938000809182
:1004D000B10084608093B1008091B000816080930E
:1004E000B00080917A00846080937A0080917A00D5
:1004F000826080937A0080917A00816080937A0094
:1005000080917A00806880937A001092C10061E047
:100510008BE00E94CC0061E08AE00E94CC0061E0A8
:1005200089E00E94CC0061E08DE00E94CC0061E097
:1005300084E00E94CC0060E082E00E94CC0060E099
:1005400084E00E94800070E060E08BE00E94FD008B
:1005500070E060E08AE00E94FD0070E060E089E009
:100560000E94FD00C3E0D0E061E08DE00E948000C9
:100570000E947F0160E08DE00E9480000E947F0168
:10058000219791F7C3E2D0E09CE9292E90E0392E23
:1005900028E8A22E20E0B22E30ED432E31E1532E7A
:1005A000612C712C40E0842E40E0942E61E084E0C8
:1005B0000E948000CE010197F1F760E084E00E9484
:1005C0008000F1016491F5018491E82FF0E0EE0FD5
:1005D000FF1FE859FF4F8591949100E412E42FE04A
:1005E00030E0462F0E94FF016115710581059105DC
:1005F00061F0DC01CB010196A11DB11DBF708632F7
:10060000F2E09F07A105B105B0F46FEF70E08BE059
:100610000E94FD0070E060E08AE00E94FD0070E052
:1006200060E089E00E94FD008114910409F4BECFCE
:100630000E940000BBCFAC01BD014652524061098F
:100640007109463351406105710540F46FEF70E068
:100650008BE00E94FD006FEF70E0DECFAC01BD01CA
:100660004C5553406109710948315140610571058C
:1006700018F470E060E0ECCF8534F6E19F07A10547
:10068000B10524F084E496E1A0E0B0E09C01AD0166
:100690002457344041095109AFEFB0E00E94820372
:1006A000A30192010E946303690130930101209329
:1006B0000001B9018BE00E94FD00B6018AE00E94B2
:1006C000FD00B601AECF052E97FB1EF400940E94EC
:1006D0007A0357FD07D00E948D0307FC03D04EF428
:1006E0000C947A0350954095309521953F4F4F4F8C
:1006F0005F4F089590958095709561957F4F8F4FCE
:100700009F4F08950E94AF03A59F900DB49F900D39
:10071000A49F800D911D11240895A1E21A2EAA1BF9
:10072000BB1BFD010DC0AA1FBB1FEE1FFF1FA217A1
:10073000B307E407F50720F0A21BB30BE40BF50B9E
:10074000661F771F881F991F1A9469F76095709527
:10075000809590959B01AC01BD01CF010895A29FAA
:10076000B001B39FC001A39F700D811D1124911D85
:10077000B29F700D811D1124911D0895F894FFCF33
:00000001FF
